:100000000C942E130C945F130C945F130C945F13D9
:100010000C945F130C945F130C945F130C945F1398
:100020000C945F130C9440C10C9436C10C94D4C052
:100030000C945F130C945F130C945F130C945F1378
:100040000C945F130C9424910C945F130C945F1325
:100050000C945F130C945F130C9469AD0C9445B72A
:100060000C945F130C949B610C945F130C945F13BE
:100070000C945F130C945F130C945F130C945F1338
:100080000C945F130C945F130C945F130C945F1328
:100090000C948D610C945F130C945F130C945F139C
:1000A0000C945F130C945F130C945F130C945F1308
:1000B0000C945F130C945F130C945F130C945F13F8
:1000C0000C945F130C945F130C945F130C94E06119
:1000D0000C945F130C945F130C947F610C945F136A
:1000E0000C945F130F4A144E71501253AA52CB5204
:1000F00096529652125312531253125312531253D2
:1001000012531253EC52F552FE520C5310531C4A28
:10011000254A294A2F4A394A434A4D4A1253614ACD
:100120006B4A744A7D4A914A974AC24ADA4A125344
:1001300012531253F74AFD4A174B1253284B964C51
:100140009F4CAA4CB34CBE4C194D12531253125330
:1001500012531253744D7D4D864D8F4D984DA14DC8
:10016000AA4DB34D1253125312531253125312533A
:10017000BC4D574AC74DD54D1253E34DF44D054E76
:100180001253125312531253125312531253504B11
:10019000544B584B144C2D4C47B54AB539B53DB569
:1001A00043B581B54EB552B558B55CB560B566B5C9
:1001B0006AB56EB581B574B578B57CB561B666B60D
:1001C0006BB675B67FB6F8B689B691B699B6A3B6D2
:1001D000ADB6B7B6C6B6D0B6F8B6DAB6E4B6EEB6D1
:1001E000084AD73B3BCE016E84BCBFFDC12F3D6C9E
:1001F00074319ABD56833DDA3D00C77F11BED9E404
:10020000BB4C3E916BAAAABE000000803F05A84CE3
:10021000CDB2D44EB93836A9020C50B991868808AF
:100220003CA6AAAA2ABE000000803F0047322F4702
:10023000332062616420706172616D6574657273F0
:100240000A00456E642066696C65206C6973740AE7
:1002500000426567696E2066696C65206C6973741D
:100260000A005344207072696E74696E6720627967
:10027000746520004E6F74205344207072696E7450
:10028000696E670A0046696C652064656C65746513
:10029000643A0044656C6574696F6E206661696CD0
:1002A00065642C2046696C653A20006F70656E208D
:1002B0006661696C65642C2046696C653A2000258E
:1002C00069730025696D20256973002569682025FB
:1002D000696D2025697300256964202569682025DA
:1002E000696D2025697300256979202569642025B9
:1002F00069682025696D20256973005072696E74E4
:100300002074696D653A200050726F74656374657E
:10031000642050696E0A004B494C4C45442E200025
:100320004D3131332053006F6B004361703A454DBE
:10033000455247454E43595F5041525345523A301A
:100340000A004361703A434153455F4C4947485462
:100350005F4252494748544E4553533A300A00438E
:1003600061703A544F47474C455F4C494748545396
:100370003A300A004361703A534F46545741524550
:100380005F504F5745523A300A004361703A4C452E
:1003900056454C494E475F444154413A310A004367
:1003A00061703A5A5F50524F42453A310A004361F8
:1003B000703A4155544F4C4556454C3A310A00432A
:1003C00061703A5052494E545F4A4F423A310A00E6
:1003D0004361703A50524F47524553533A300A00E6
:1003E0004361703A4155544F5245504F52545F54F7
:1003F000454D503A310A004361703A454550524FDD
:100400004D3A310A004649524D574152455F4E41DF
:100410004D453A4D61726C696E20312E312E34207B
:10042000284769746875622920534F555243455FC8
:10043000434F44455F55524C3A68747470733A2F79
:100440002F6769746875622E636F6D2F4D61726CD2
:10045000696E4669726D776172652F4D61726C6964
:100460006E2050524F544F434F4C5F5645525349A4
:100470004F4E3A312E30204D414348494E455F544E
:100480005950453A4933504C5553204558545255CC
:100490004445525F434F554E543A312055554944D7
:1004A0003A63656465326132662D343161322D34D0
:1004B0003734382D396231322D6335356336326643
:1004C00033363766660A002F2F20007A5F6D696E1B
:1004D0003A2000795F6D696E3A2000785F6D696E31
:1004E0003A20005265706F7274696E6720656E64A1
:1004F00073746F70207374617475730A005365743C
:1005000074696E672054726176656C20416363651F
:100510006C65726174696F6E3A200053657474691A
:100520006E67205265747261637420416363656C09
:1005300065726174696F6E3A200053657474696EF8
:1005400067205072696E7420416363656C657261E7
:1005500074696F6E3A200053657474696E67205039
:1005600072696E7420616E642054726176656C20CD
:10057000416363656C65726174696F6E3A20002037
:100580005A00205900580020204D61783A20002060
:100590005A00205900580020204D696E3A20004F23
:1005A0006E20004F666600536F667420656E64733C
:1005B000746F70733A200000013D3E3C36FF4041AD
:1005C0000218FF43454206FFFFFF0305FFFFFF3A06
:1005D0003B39FFFF034404FF37FFFFFFFFFFFF200E
:1005E000643A0020693A0020703A00236465666925
:1005F0006E65202044454641554C545F4B642000B5
:1006000023646566696E65202044454641554C5417
:100610005F4B69200023646566696E652020444550
:100620004641554C545F4B70200050494420417561
:10063000746F74756E652066696E69736865642190
:100640002050757420746865206C617374204B7041
:100650002C204B6920616E64204B6420636F6E73A5
:1006600074616E74732066726F6D2062656C6F7753
:1006700020696E746F20436F6E666967757261746E
:10068000696F6E2E680A00504944204175746F747A
:10069000756E65206661696C6564212074696D659D
:1006A0006F757400504944204175746F74756E65A0
:1006B000206661696C6564212074696D656F75746D
:1006C0000A00504944204175746F74756E65206648
:1006D00061696C6564212054656D70657261747523
:1006E000726520746F6F2068696768005049442004
:1006F0004175746F74756E65206661696C656421FF
:100700002054656D706572617475726520746F6FC9
:1007100020686967680A00204B643A2000204B6912
:100720003A2000204B703A20000A20436C6173731A
:10073000696320504944200A002054753A20002063
:100740004B753A2000206D61783A2000206D696E6B
:100750003A200020643A200020626961733A200048
:1007600061626C5F656E61626C65640061626C5FA2
:1007700064697361626C65003A20007A5F6D696E2E
:100780003A20202D3230207A5F6D61783A20203275
:1007900030005A204F6666736574200050415553EF
:1007A00045205052494E5420444F4E450A0045586A
:1007B00045204C434420494E534552542046494C11
:1007C000414D454E54320A00455845204C43442083
:1007D000494E534552542046494C414D454E5431A3
:1007E0000A0020202046696C616D656E7420727568
:1007F0006E6F757434210A496E7365727420666970
:100800006C616D656E7420616E64207072657373C7
:1008100020627574746F6E20746F20636F6E7469DC
:100820006E75652E0A2057616974696E6720666F60
:1008300072206368616E67696E672066696C616DBE
:10084000656E742E00090946696C616D656E7420D1
:1008500072756E6F757433210A5761697420666F03
:10086000722066696C616D656E7420756E6C6F6167
:10087000642E00090946696C616D656E742072759D
:100880006E6F757432210A5761697420666F722029
:100890007374617274206F662066696C616D656E39
:1008A00074206368616E67652E0057414954204685
:1008B0004F522052454C4F414420444F4E450A0070
:1008C00020202046696C616D656E742072756E6FB4
:1008D000757436210A496E736572742066696C619D
:1008E0006D656E7420616E64207072657373206232
:1008F0007574746F6E20746F20636F6E74696E759B
:10090000652E0A2057616974696E6720666F7220D0
:100910006368616E67696E672066696C616D656E9C
:10092000742E00202020202046696C616D656E7455
:100930002072756E6F757435210A546865206E6F6C
:100940007A7A6C652068617320636F6F6C20646FC6
:10095000776E2C707265737320627574746F6E207D
:10096000746F2072656865617420746865206E6FAD
:100970007A7A6C652E0045584520574149542046E7
:100980004F522046494C414D454E542052454C4F04
:1009900041440A0020202046696C616D656E742018
:1009A00072756E6F75743131210A576169742066F2
:1009B0006F72207072696E7420746F207265737527
:1009C0006D652E004348414E4745204F5054494FD6
:1009D0004E533A0020202046696C616D656E74208C
:1009E00072756E6F757439210A5761697420666F6C
:1009F000722066696C616D656E74206578747275BD
:100A000064652E0045584520524553554D452057A5
:100A1000414954205741495420574149540A002024
:100A2000202046696C616D656E742072756E6F75FD
:100A30007438210A5761697420666F722066696C88
:100A4000616D656E74206C6F61642E0020202046FD
:100A5000696C616D656E742072756E6F7574372187
:100A60000A496E736572742066696C616D656E7497
:100A700020616E6420707265737320627574746F88
:100A80006E20746F20636F6E74696E75652E0A2018
:100A900057616974696E6720666F72206368616E62
:100AA00067696E672066696C616D656E742E0045BE
:100AB000584520524553554D45205052494E540AF1
:100AC000004E6F2063617365206C696768740A006B
:100AD000556E6B6E6F776E20636F6D6D616E643AED
:100AE000202200207A3A0020793A00783A002066E5
:100AF000697273740A005A0059005800486F6D6596
:100B000020004D6172747269782073617665206F80
:100B10006B2E0A000A0A426564204C6576656C20DB
:100B2000436F7272656374696F6E204D6174726990
:100B3000783A00202B000A436F7272656374656413
:100B400020426564204865696768742076732E20AA
:100B500042656420546F706F6C6F67793A0A0020A9
:100B60002B000A4265642048656967687420546FE9
:100B7000706F6772617068793A0A2020202B2D2DE2
:100B80002D204241434B202D2D2B0A2020207C205C
:100B9000202020202020202020207C0A204C207C87
:100BA00020202020282B29202020207C20520A20B1
:100BB00045207C20202020202020202020207C2058
:100BC000490A2046207C20282D29204E20282B2928
:100BD000207C20470A2054207C2020202020202018
:100BE000202020207C20480A2020207C202020203B
:100BF000282D29202020207C20540A2020207C2001
:100C0000202020202020202020207C0A2020204F6F
:100C10002D2D2046524F4E54202D2D2B0A202830AA
:100C20002C30290A004D65616E206F662073616D5E
:100C3000706C656420706F696E74733A2000206474
:100C40003A200020623A200045716E20636F65668D
:100C500066696369656E74733A20613A2000527563
:100C60006E6E696E6720696E204452592D52554E42
:100C7000206D6F64650A00473239204175746F201A
:100C8000426564204C6576656C696E670A0028428F
:100C90002961636B00284629726F6E7400285229FF
:100CA0006967687400284C29656674003F4E756D4D
:100CB000626572206F662070726F626520706F6966
:100CC0006E747320697320696D706C6175736962ED
:100CD0006C65202832206D696E696D756D292E0A4C
:100CE000003F2856296572626F7365206C657665D2
:100CF0006C20697320696D706C61757369626C65D5
:100D00002028302D34292E0A005344206361726458
:100D10002072656D6F7665642E00534420636172A6
:100D20006420696E7365727465642E005461726725
:100D300065742066696C65206F70656E20666169F8
:100D40006C2E0052656672657368206F6B2E0A0008
:100D50004D3530300047323800473239004732389D
:100D6000004D393939206F6B2E0A00473238205830
:100D70003020593000473238205A3000473238206E
:100D80005930004732382058300047323800556E0D
:100D90006B6E6F776E2E004D35303000656E71755D
:100DA000657565696E672022004E6F204C696E651F
:100DB000204E756D6265722077697468206368657E
:100DC000636B73756D2C204C617374204C696E6578
:100DD0003A20004B494C4C45442E20005072696E1D
:100DE0007465722073746F7070656420647565201B
:100DF000746F206572726F72732E2046697820744A
:100E00006865206572726F7220616E64207573650B
:100E1000204D39393920746F207265737461727492
:100E20002E202854656D7065726174757265206935
:100E3000732072657365742E205365742069742065
:100E400061667465722072657374617274696E672D
:100E5000290A004E6F20436865636B73756D2077B8
:100E6000697468206C696E65206E756D6265722CA0
:100E7000204C617374204C696E653A20006368658C
:100E8000636B73756D206D69736D617463682C207D
:100E90004C617374204C696E653A20004C696E6534
:100EA000204E756D626572206973206E6F74204CE0
:100EB000617374204C696E65204E756D6265722B8E
:100EC000312C204C617374204C696E653A20004DC2
:100ED000313130004D3331004D3834205820592005
:100EE0005A20450053442072656164206572726F18
:100EF000720A00446F6E65207072696E74696E6765
:100F00002066696C650A0020496E76616C69642010
:100F1000657874727564657220000000000000003E
:100F2000000000000000000096430000964300000F
:100F3000C84320706F736974696F6E206F75742079
:100F40006F662072616E67652E0A003F50726F6295
:100F50006520004B494C4C45442E2000202D204953
:100F60006E76616C69642065787472756465722050
:100F70006E756D626572202100202D20496E7661AC
:100F80006C6964206578747275646572206E756D25
:100F900062657220210A002020506C616E6E6572BD
:100FA00042756666657242797465733A2000204620
:100FB000726565204D656D6F72793A2000436F6DE3
:100FC00070696C65643A204A756E20313220323087
:100FD00031380A00207C20417574686F723A2028ED
:100FE0006E6F6E652C2064656661756C7420636F2E
:100FF0006E666967290A00323031372D30372D305F
:10100000342031323A303000204C617374205570F6
:1010100064617465643A2000312E312E340A004D2B
:1010200061726C696E0020536F667477617265201F
:1010300052657365740A00205761746368646F6752
:101040002052657365740A002042726F776E206FBC
:1010500075742052657365740A0020457874657252
:101060006E616C2052657365740A00506F7765720B
:1010700055700A0073746172740A006572726F723F
:101080002077726974696E6720746F2066696C6579
:101090000A00205A3A0020593A0020583A00656E5A
:1010A0006473746F7073206869743A200053544FEE
:1010B00050207072696E74696E670A004D6F7665B4
:1010C0002061776179204F4B2E0A004D6F766520A5
:1010D00061776179205820592E0A004D6F7665207E
:1010E0006177617920582C592E2E2E005379737414
:1010F000656D2073746F7020666F722073687574ED
:10110000646F776E2E00446F6E6520736176696E32
:10111000672066696C652E0A004D3239004572728F
:101120006F722077726974696E6720746F2045450D
:1011300050524F4D210A00290A00206279746573CC
:101140003B20637263200053657474696E6773207B
:1011500053746F726564202800202863616C637586
:101160006C6174656429210A0020213D20004545F9
:1011700050524F4D20435243206D69736D6174632B
:1011800068202D202873746F726564292000290A55
:10119000002062797465733B2063726320002073C2
:1011A000746F7265642073657474696E67732072FE
:1011B0006574726965766564202800204D61726CE3
:1011C000696E3D563033290A0028454550524F4D2F
:1011D0003D00454550524F4D2076657273696F6EE4
:1011E000206D69736D617463682000486172646387
:1011F0006F6465642044656661756C742053657422
:1012000074696E6773204C6F616465640A00F40151
:101210000000F401000064000000F4010000000080
:101220009643000096430000A0400000C8419A99F0
:10123000A0429A99A0420040C8439A99BC422020FB
:101240004D383531205A005A2D50726F6265204F4B
:10125000666673657420286D6D293A0A0020440083
:1012600020490020204D3330312050005049442087
:1012700073657474696E67733A0A002046002042F1
:101280000020480020204D3134352053004D61743A
:10129000657269616C206865617475702070617237
:1012A000616D65746572733A0A0020204D343230E6
:1012B0002053004175746F20426564204C6576654B
:1012C0006C696E673A0A00205A0020590020204DB0
:1012D000323036205800486F6D65206F6666736542
:1012E000743A0A00204500205A0020590020580076
:1012F00020420020540020204D3230352053004140
:101300006476616E6365643A20533C6D696E5F6616
:10131000656564726174653E20543C6D696E5F74EE
:10132000726176656C5F66656564726174653E20A6
:10133000423C6D696E5F7365676D656E745F74695D
:101340006D655F6D733E20583C6D61785F78795FA5
:101350006A65726B3E205A3C6D61785F7A5F6A65A0
:10136000726B3E20453C6D61785F655F6A65726BAC
:101370003E0A0020540020520020204D32303420FC
:101380005000416363656C65726174696F6E2028FB
:10139000756E6974732F7332293A20503C707269EC
:1013A0006E745F616363656C3E20523C726574725B
:1013B0006163745F616363656C3E20543C74726169
:1013C00076656C5F616363656C3E0A0020450020B2
:1013D0005A0020590020204D3230312058004D61F4
:1013E00078696D756D20416363656C6572617469C0
:1013F0006F6E2028756E6974732F7332293A0A0054
:10140000204500205A0020590020204D3230332042
:1014100058004D6178696D756D206665656472610F
:101420007465732028756E6974732F73293A0A00E6
:10143000204500205A0020590020204D39322058E4
:101440000053746570732070657220756E69743A0C
:101450000A0020204D3230302044300A0020204D38
:101460003230302044002044697361626C65640A44
:101470000046696C616D656E742073657474696E85
:1014800067733A0020204D3134392043203B2055EA
:101490006E69747320696E2043656C736975730A95
:1014A000002020473231202020203B20556E6974D7
:1014B0007320696E206D6D0A0000000000000000BE
:1014C0000000000000546F6F206661722066726F2A
:1014D0006D207265666572656E636520706F696EFA
:1014E000740A00204A756E203132203230313820A3
:1014F00030393A33353A353000646576656C6F00C3
:10150000706572202D592E00532E5A2E004163749F
:101510006976652045787472756465723A20004D6D
:1015200031313033206F6B2E0A00534420726561D5
:1015300064206572726F720A006D6F7665207A2082
:101540006178697320616E64206520617869732E0B
:101550000A00536420696E6974206661696C2120F9
:10156000536F2063616E277420726573756D6520FB
:101570007072696E742E00536420696E69742066FF
:1015800061696C212E0A536F2063616E277420728B
:101590006573756D65207072696E742E004D313102
:1015A0003031206F6B2D2D00546172676574206699
:1015B000696C65206F70656E206661696C2E004EE7
:1015C0006F207072696E74206E65656465642E00AC
:1015D0004361726420696E6974206661696C004DB4
:1015E00031313031206661696C20666F7220636131
:1015F000726420696E6974206661696C2E0A0050FD
:1016000072696E7420636F6E74696E7565206672A0
:101610006F6D206C61737420627265616B2E0A00BD
:101620004E4F206E65656420746F20636F6E746921
:101630006E756520746F207072696E742E0A004D8D
:1016400031313032207374617475733A31204669D8
:101650006C653A004D3131303220737461747573AA
:101660003A300A0024F4D43050C38E20C2A240176E
:10167000828B7011127A910D816CD90AA861E108F0
:10168000C7586607615143061E4B5D05C145A70457
:101690001A411104093D9803713931034036DB02C8
:1016A00065339102D4305402802E1D02632CEE016A
:1016B000752AC501B028A001102781018F2564017A
:1016C0002B244B01E0223401AC211F018D200D01A0
:1016D000801FFC00841EED00971DDF00B81CD200A7
:1016E000E61BC600201BBC00641AB200B219A80099
:1016F0000A19A0006A189900D117910040178B00B1
:10170000B516840031167E00B31579003A157300C2
:10171000C7146F0058146A00EE1366008813630044
:1017200025135E00C7125B006C125700151254009F
:10173000C111510070114F0021114B00D61049000A
:101740008D1047004610440002104200C00F4000B8
:10175000800F3E00420F3C00060F3B00CB0E3800CE
:10176000930E37005C0E3500270E3400F30D320067
:10177000C10D3100900D3000600D2E00320D2D0096
:10178000050D2C00D90C2B00AE0C2900850C29006E
:101790005C0C2700350C27000E0C2600E80B2400FB
:1017A000C40B2400A00B23007D0B23005A0B210047
:1017B000390B2100180B2000F80A1F00D90A1E005F
:1017C000BB0A1E009D0A1D00800A1D00630A1C0042
:1017D000470A1B002C0A1B00110A1A00F7091A00FD
:1017E000DD091900C4091900AB0919009209170095
:1017F0007B091800630917004C091600360916000A
:10180000200916000A091500F5081500E008140063
:10181000CC081400B8081400A408140090081300A1
:101820007D0812006B0813005808120046081200C9
:1018300034081100230811001208110001081100DA
:10184000F0071000E0071000D0071000C0071000DC
:10185000B0070F00A107100091070E0083070F00CB
:1018600074070F0065070E0057070E0049070E00AA
:101870003B070D002E070E0020070D0013070D007B
:1018800006070D00F9060C00ED060D00E0060C0041
:10189000D4060C00C8060C00BC060C00B0060C00F8
:1018A000A4060B0099060C008D060B0082060B00A7
:1018B00077060B006C060B0061060A0057060B004A
:1018C0004C060A0042060A0038060A002E060A00E4
:1018D00024060A001A060A001006090007060A0074
:1018E000FD050900F4050900EB050900E205090002
:1018F000D9050900D0050900C7050900BE05090082
:10190000B5050800AD050800A50509009C050800FF
:10191000940508008C050800840508007C05080073
:10192000740508006C050700650508005D050700E3
:10193000560508004E05070047050700400508004A
:1019400038050700310507002A05070023050700B1
:101950001C050600160507000F0507000805060010
:1019600002050700FB040600F5040700EE0406006C
:10197000E8040600E2040700DB040600D5040600C4
:10198000CF040600C9040600C3040600BD04060017
:10199000B7040600B1040500AC040600A604060066
:1019A000A00405009B0406009504050090040600B1
:1019B0008A04050085040500800406007A040500F9
:1019C00075040500700405006B040500660405003D
:1019D000610405005C04050057040500520405007D
:1019E0004D04050048040500430405003E040400BE
:1019F0003A04050035040500300404002C040500F9
:101A000027040400230405001E0404001A04040033
:101A100016040500110404000D0404000904050067
:101A20000404040000040400FC030400F8030400A0
:101A3000F4030400F0030400EC030400E8030400D2
:101A4000E4030400E0030400DC030400D803040002
:101A5000D4030400D0030400CC030400C803030033
:101A6000C503030024F404D9201BC40C5C0E9804A5
:101A7000C4095F0265077101F405F900FB04B300B6
:101A800048048700C103690058035500030345005B
:101A9000BE023A008402310053022A0029022500C6
:101AA00004022000E4011C00C8011900AF01170066
:101AB00098011400840113007101100061011000ED
:101AC00051010E0043010D0036010B002B010B00EC
:101AD00020010B00150109000C0109000301080099
:101AE000FB000800F3000800EB000700E40006001C
:101AF000DE000600D8000600D2000600CC0005007B
:101B0000C7000500C2000500BD000400B9000400C4
:101B1000B5000400B1000400AD000400A9000400F9
:101B2000A5000300A20003009F0004009B00030027
:101B3000980003009500020093000300900003004A
:101B40008D0002008B000300880002008600020066
:101B500084000300810002007F0002007D0002007B
:101B60007B0002007900020077000100760002008D
:101B70007400020072000100710002006F00020098
:101B80006D0001006C0002006A00010069000200A3
:101B900067000100660001006500010064000200AA
:101BA0006200010061000100600001005F000200AE
:101BB0005D0001005C0001005B0001005A000100B3
:101BC00059000100580001005700010056000100B3
:101BD00055000100540001005300000053000100B3
:101BE0005200010051000100500001004F000100AF
:101BF0004E0000004E0001004D0001004C000100AD
:101C00004B0000004B0001004A00010049000100A8
:101C100048000000480001004700010046000000A5
:101C2000460001004500000045000100440001009D
:101C30004300000043000100420000004200010098
:101C40004100000041000100400001003F00000091
:101C50003F0001003E0000003E0001003D0000008A
:101C60003D0001003C0000003C0000003C00010081
:101C70003B0000003B0001003A0000003A00010078
:101C80003900000039000100380000003800000071
:101C90003800010037000000370001003600000066
:101CA000360000003600010035000000350000005D
:101CB0003500010034000000340000003400010051
:101CC0003300000033000000330001003200000048
:101CD000320000003200010031000000310000003D
:101CE0003100010030000000300000003000010031
:101CF0002F0000002F0000002F0000002F00010027
:101D00002E0000002E0000002E0001002D0000001B
:101D10002D0000002D0000002D0001002C0000000F
:101D20002C0000002C0000002C0001002B00000003
:101D30002B0000002B0000002B0001002A000000F7
:101D40002A0000002A0000002A00010029000000EB
:101D500029000000290000002900000029000100DE
:101D600028000000280000002800000028000000D3
:101D700028000100270000002700000027000000C5
:101D800027000000270001002600000026000000B8
:101D900026000000260000002600010025000000AB
:101DA000250000002500000025000000250000009F
:101DB0002500010024000000240000002400000091
:101DC0002400000024000100230000002300000084
:101DD0002300000023000000230000002300000077
:101DE0002300010022000000220000002200000069
:101DF000220000002200000022000100210000005B
:101E0000210000002100000021000000210000004E
:101E1000210000002100010020000000200000003F
:101E20002000000020000000200000002000000032
:101E300020000000200001001F0000001F00000023
:101E40001F0000001F0000001F0000001F00000016
:101E50001F0001001E0000001E0000001E00000008
:101E60001E0000004D383420582059205A204500CB
:101E70004D3234004D3233202573006175746F2567
:101E8000692E670053442063617264206F6B0A00FF
:101E90006F70656E526F6F74206661696C65640A5D
:101EA00000766F6C756D652E696E69742066616968
:101EB0006C65640A00534420696E69742066616928
:101EC0006C0A0057726974696E6720746F206669C6
:101ED0006C653A20006F70656E206661696C6564A0
:101EE0002C2046696C653A20006F70656E20666133
:101EF000696C65642C2046696C653A200046696C03
:101F0000652073656C65637465640A002053697AA3
:101F1000653A200046696C65206F70656E65643AAD
:101F200020006F70656E206661696C65642C2046C8
:101F3000696C653A20002066696C653A20004E6F36
:101F40007720002220706F73002220706172656E0E
:101F5000743A2200535542524F5554494E4520433E
:101F6000414C4C207461726765743A22004B494CB5
:101F70004C45442E2000547279696E6720746F209E
:101F800063616C6C207375622D67636F6465206696
:101F9000696C6573207769746820746F6F206D6158
:101FA0006E79206C6576656C732E00747279696E3B
:101FB0006720746F2063616C6C207375622D67639A
:101FC0006F64652066696C65732077697468207436
:101FD0006F6F206D616E79206C6576656C732E2055
:101FE0004D4158206C6576656C2069733A004572E6
:101FF000726F723A0043616E6E6F74206F70656E1F
:102000002073756264697220006563686F3A0054DA
:102010004845524D414C2052554E4157415900546C
:102020006865726D616C2052756E61776179007CB4
:102030003C3E5E2B3D3F2F5B5D3B2C2A225C0042E9
:1020400065642068656174206661696C2E0A537945
:102050007374656D2073746F702E0A506C656173B4
:10206000652072657374617274206D616368696E56
:10207000652E0045787472756465722068656174B8
:10208000206661696C2E0A53797374656D207374D0
:102090006F702E0A506C6561736520726573746190
:1020A0007274206D616368696E652E006265640AF2
:1020B000002C2073797374656D2073746F70706574
:1020C0006421204865617465725F49443A20004884
:1020D000656174696E67206661696C656400486556
:1020E0006174696E67206661696C6564004865614A
:1020F00074696E67206661696C65642E0A53797332
:1021000074656D2073746F702E0048656174696E1C
:1021100067206661696C65640048656174696E6713
:10212000206661696C65640048656174696E67204A
:102130006661696C65642E0A53797374656D2073EA
:10214000746F702E0070012C0190012701B00122E4
:1021500001C0011D01F00118011002130130020E2F
:10216000016002090190020401C002FF000003FAAD
:10217000004003F5008003F000D003EB002004E6EC
:10218000007004E100E004DC004005D700C005D287
:10219000004006CD00D006C8008007C3003008BE4E
:1021A00000F008B900C009B400B00AAF00B00BAA33
:1021B00000D00CA500000EA000500F9B00C0109690
:1021C000005012910000148C00C0158700B01782D7
:1021D00000B0197D00D01B7800001E730040206EF7
:1021E0000090226900F024640040275F0090295A83
:1021F00000E02B5500102E500020304B00103246CE
:1022000000E033410090353C001037370070383221
:1022100000A0392D00B03A2800A03B2300603C1EEE
:1022200000103D1900903D1400103E0F00703E0A52
:1022300000C03E0500003F0000403FFBFF803FF62E
:10224000FFC03FF1FF4572723A204D494E54454D53
:102250005020424544004572723A204D494E544543
:102260004D50004D494E54454D502074726967677A
:1022700065726564004572723A204D415854454D6F
:102280005020424544004572723A204D4158544511
:102290004D50004D415854454D5020747269676748
:1022A0006572656400205A3A200020593A200042A5
:1022B000656420583A200045787472756465005250
:1022C0006573756D650000002100240027002A0059
:1022D0002D003000330001010000040107010A0154
:1022E00000002200250028002B002E0031003400C1
:1022F00002010000050108010B010000200023007D
:10230000260029002C002F003200000100000301EC
:102310000601090105050505070508080808020268
:1023200002020A0A0808040404040101010101016F
:1023300001010303030303030303040707070C0C52
:102340000C0C0C0C0C0C0202020206060606060619
:1023500006060B0B0B0B0B0B0B0B010210202008BE
:1023600008102040102040800201020108040201F0
:10237000010204081020408080402010080402015F
:1023800080040201804020100804020108040201B8
:10239000010204081020408001020408102040803F
:1023A00000000A0B02090C0D0E08070304010000CF
:1023B000000000000000000000000000000000001D
:1023C00000000000000000000000000012111000DA
:1023D00000000000000000000000000000000000FD
:1023E000000000000000434F4D4D554E49434154FD
:1023F000494F4E0044525952554E004552524F5289
:102400005300494E464F004543484F00090946696D
:102410006C616D656E742072756E6F757431210A12
:1024200048656174696E67206E6F7A7A6C650A50D0
:102430006C6561736520776169742E2E2E00202FE4
:10244000002042403A0020403A0020573A002057EE
:102450003A0007240224FB23F423E6236F66660078
:1024600044454255473A00205A3A0020593A002044
:10247000436F756E7420583A0020453A00205A3A4E
:102480000020593A00583A00426564204C65766550
:102490006C696E6720004661696C656420746F200A
:1024A000656E61626C6520426564204C6576656C82
:1024B000696E670A00426564204C6576656C20434E
:1024C0006F7272656374696F6E204D6174726978A2
:1024D0003A00526573656E643A20006F6B00627556
:1024E00073793A2070617573656420666F72206934
:1024F0006E7075740A00627573793A207061757335
:10250000656420666F7220757365720A0062757368
:10251000793A2070726F63657373696E670A004B56
:10252000494C4C45442E20004B696C6C206361750E
:1025300073656420627920746F6F206D7563682005
:10254000696E6163746976652074696D652E004BF0
:10255000494C4C2063617573656420627920746F07
:102560006F206D75636820696E616374697665209C
:1025700074696D65202D2063757272656E742063B9
:102580006F6D6D616E643A20005072696E74657291
:102590002068616C7465642E206B696C6C2829203E
:1025A00063616C6C6564210A005361766520656E19
:1025B0007669726F6E6D656E74204F4B2E2E2E00F5
:1025C0005361766520656E7669726F6E6D656E74A7
:1025D000204F4B2E2E2E00506F7765722062726551
:1025E000616B210A00506F77657220627265616BC2
:1025F0002100FFFFFF4D3530300000007042000029
:1026000070420000204200000000205A3A200020C2
:10261000593A200042656420583A20004E414E4904
:102620004E495459494E46CDCCCC3D0AD7233C1790
:10263000B7D13877CC2B329595E6241FB14F0A00DD
:102640000020410000C84200401C4620BCBE4CCACD
:102650001B0E5AAEC59D740021D800D811241FBE90
:10266000CFEFD1E2DEBFCDBF00E00CBF13E0A0E0B2
:10267000B2E0E0EAF1ED01E00BBF02C007900D927D
:10268000A039B107D9F722E1A0E9B3E001C01D925A
:10269000A23CB207E1F713E1CDE2D3E100E006C0CE
:1026A00021970109802FFE010E9499DBCC32D107CE
:1026B00080E00807A9F70E94BED00C94BEE80C94F5
:1026C00000002F923F924F925F926F927F928F9273
:1026D0009F92AF92BF92CF92DF92EF92FF920F93B1
:1026E0001F93CF93DF93CDB7DEB7C559D1090FB68E
:1026F000F894DEBF0FBECDBFE091400620E4E29F1C
:10270000F0011124E05CFB4F8081813091F4BF0126
:102710006F5F7F4F80E090E0DB014D91BD019C0138
:102720002D5B394FD9014C93019684309105A1F767
:1027300008C010924306109244061092450610926B
:10274000460610828581181614F0809300028F01CE
:102750000A5F1F4F8091470680FF2EC0E9E0F0E23C
:1027600084917F01BFEFEB1AFB0A882321F00E94BE
:10277000175CF701F5CF809100020E94175C8AE098
:102780000E94175CE9E0F0E284917F012FEFE21AEA
:10279000F20A811102C0780104C00E94175CF7019F
:1027A000F3CFD7018D917D01882319F00E94175C2A
:1027B000F8CF8AE00E94175C81E090E090930612C7
:1027C00080930512C8010E9418CD8091AB128D3400
:1027D00009F4A1C6843511F40C94E02B873411F070
:1027E0000C94E52B8091A9129091AA128C3191053D
:1027F00009F465C69CF48430910544F48230910557
:102800000CF091C097FF2CC00C94FF2B049711F093
:102810000C94FF2B0E94F95A0C94FF2B82329105E5
:1028200009F456C664F48D31910509F44DC64E97EE
:1028300011F00C94FF2B0E94BECF0C94FF2B8B3514
:10284000910509F45FC68C35910509F460C68A3597
:10285000910511F00C94FF2B109297030C94FF2B11
:1028600080910302882311F40C94FF2B0E945B5A81
:1028700080916802882321F085E192E10E9462BF85
:102880000E94EE5A209115123091161240911712A3
:102890005091181260914611709147118091481122
:1028A000909149110E94A8E481111DC02091191234
:1028B00030911A1240911B1250911C1260914A11D2
:1028C00070914B1180914C1190914D110E94A8E490
:1028D000811109C060913B0270913C0280913D02E0
:1028E00090913E021AC06091310270913202072E1F
:1028F000000C880B990B0E94AEE420913B023091B2
:102900003C0240913D0250913E020E940DE52AE0BA
:1029100037ED43E25CE30E940DE50E9468560E9499
:102920005E560C94FF2B20910302222311F40C9489
:10293000FF2B11E0029709F010E00E945B5A82E53C
:102940000E944F5A882309F45CC10E94ED596B0123
:102950007C01409046115090471160904811709052
:10296000491120914A1130914B1140914C115091D5
:102970004D1127962CAF3DAF4EAF5FAF279780919B
:10298000151290911612A0911712B09118122B9651
:102990008CAF9DAFAEAFBFAF2B9720911912309186
:1029A0001A1240911B1250911C1263962CAF3DAF2E
:1029B0004EAF5FAF639720E030E0A901C701B601D9
:1029C0000E94A8E4882309F460C5A30192012B9614
:1029D0006CAD7DAD8EAD9FAD2B970E94A8E48111AB
:1029E00011C027962CAD3DAD4EAD5FAD27976396D8
:1029F0006CAD7DAD8EAD9FAD63970E94A8E488233A
:102A000009F443C520E030E0A901C701B6010E94E6
:102A1000A8E4881F8827881F18130BC080E090E067
:102A2000A0E8BFE36F968CAF9DAFAEAFBFAF6F971F
:102A30000AC020E030E040E85FEB6F962CAF3DAF7E
:102A40004EAF5FAF6F97A30192012B966CAD7DAD3A
:102A50008EAD9FAD2B970E94A1DB67966CAF7DAFCB
:102A60008EAF9FAF679727962CAD3DAD4EAD5FAD56
:102A7000279763966CAD7DAD8EAD9FAD63970E9439
:102A8000A1DB6B966CAF7DAF8EAF9FAF6B976796F8
:102A90002CAD3DAD4EAD5FAD6797CA01B9010E9447
:102AA0000DE54B015C016B962CAD3DAD4EAD5FADC0
:102AB0006B97CA01B9010E940DE59B01AC01C501EC
:102AC000B4010E94A2DB0E9434DE2F966CAF7DAF72
:102AD0008EAF9FAF2F9720E030E040E05FE30E9491
:102AE0000DE54B015C01A7019601C701B6010E94EB
:102AF0000DE56B017C01A5019401C501B4010E94A3
:102B00000DE59B01AC01C701B6010E94A1DB0E944B
:102B100034DE9B01AC016F966CAD7DAD8EAD9FAD8B
:102B20006F970E940DE54B015C012B962CAD3DADDE
:102B30004EAD5FAD2B97C301B2010E94A2DB20E036
:102B400030E040E05FE30E940DE56B017C016B9695
:102B50006CAD7DAD8EAD9FAD6B9790582F962CAD23
:102B60003DAD4EAD5FAD2F970E948FDC9B01AC0158
:102B7000C501B4010E940DE59B01AC01C701B6017E
:102B80000E94A2DBA30192010E94A1DB6B017C01E8
:102B900063962CAD3DAD4EAD5FAD639727966CADA2
:102BA0007DAD8EAD9FAD27970E94A2DB20E030E087
:102BB00040E05FE30E940DE52B013C012F962CAD18
:102BC0003DAD4EAD5FAD2F9767966CAD7DAD8EADD3
:102BD0009FAD67970E948FDC9B01AC01C501B401DA
:102BE0000E940DE59B01AC01C301B2010E94A2DB72
:102BF00027962CAD3DAD4EAD5FAD27970E94A1DB72
:102C000014C089E40E944F5A882329F00E94ED598C
:102C10006B017C0103C0C12CD12C76018AE40E9497
:102C20004F5A8823F9F00E94ED5963966CAF7DAF3F
:102C30008EAF9FAF639720E030E0A901C701B601D6
:102C40000E94A8E481111EC020E030E0A901639633
:102C50006CAD7DAD8EAD9FAD63970E94A8E48111F0
:102C600011C013C420E030E0A901C701B6010E94E1
:102C7000A8E4882309F409C463961CAE1DAE1EAEF9
:102C80001FAE6397D701C601B05827968CAF9DAF92
:102C9000AEAFBFAF279763962CAD3DAD4EAD5FADE8
:102CA000639750582B962CAF3DAF4EAF5FAF2B972D
:102CB0009C01AD01BC01CD010E940DE54B015C0101
:102CC0002B962CAD3DAD4EAD5FAD2B97CA01B90132
:102CD0000E940DE59B01AC01C501B4010E94A2DB7D
:102CE0000E9434DEAB966CAF7DAF8EAF9FAFAB97DB
:102CF0008091461190914711A0914811B0914911CE
:102D00002F968CAF9DAFAEAFBFAF2F97A7019601A7
:102D1000BC01CD010E94A2DB6F966CAF7DAF8EAF80
:102D20009FAF6F9720914A1130914B1140914C11F8
:102D300050914D1167962CAF3DAF4EAF5FAF679787
:102D400063962CAD3DAD4EAD5FAD639767966CADB0
:102D50007DAD8EAD9FAD67970E94A2DBE3966CAF11
:102D60007DAF8EAF9FAFE3978091151290911612B1
:102D7000A0911712B0911812A3968CAF9DAFAEAF71
:102D8000BFAFA3976F962CAD3DAD4EAD5FAD6F97C6
:102D9000BC01CD010E94A1DB6B017C0120911912C5
:102DA00030911A1240911B1250911C12A7962CAF11
:102DB0003DAF4EAF5FAFA797E3962CAD3DAD4EADA7
:102DC0005FADE397A7966CAD7DAD8EAD9FADA79738
:102DD0000E94A1DB4B015C0180914E1190914F113B
:102DE000A0915011B0915111E7968CAF9DAFAEAF4D
:102DF000BFAFE7979C01AD0160911D1270911E124B
:102E000080911F12909120120E94A1DB6B966CAFF3
:102E10007DAF8EAF9FAF6B97209121123091221220
:102E20004091231250912412AF962CAF3DAF4EAF7C
:102E30005FAFAF978091521190915311A0915411AF
:102E4000B0915511EB968CAF9DAFAEAFBFAFEB9786
:102E5000A701960127966CAD7DAD8EAD9FAD2797EE
:102E60000E940DE52B013C01A50194012B966CAD50
:102E70007DAD8EAD9FAD2B970E940DE59B01AC0102
:102E8000C301B2010E94A2DB2B013C01A501940108
:102E900027966CAD7DAD8EAD9FAD27970E940DE559
:102EA0004B015C01A70196012B966CAD7DAD8EADFB
:102EB0009FAD2B970E940DE59B01AC01C501B401AC
:102EC0000E94A1DBA30192010E9420DC6B017C0126
:102ED00020E030E0A9010E94A8E487FF0AC02BEDA2
:102EE0003FE049EC50E4C701B6010E94A2DB6B0150
:102EF0007C01112351F02BED3FE049EC50E4C70178
:102F0000B6010E94A1DB6B017C0120E030E0A90149
:102F1000C701B6010E94A8E4811128C0A3962CAD78
:102F20003DAD4EAD5FADA3972F966CAD7DAD8EAD33
:102F30009FAD2F970E94A8E4811118C0A7962CADD1
:102F40003DAD4EAD5FADA79767966CAD7DAD8EADD7
:102F50009FAD67970E94A8E4811108C02BEDC22E97
:102F60002FE0D22E29ECE22E20E4F22EAB962CADEF
:102F70003DAD4EAD5FADAB97C701B6010E940DE50B
:102F80009B01AC010E940DE54B015C016B962CADE1
:102F90003DAD4EAD5FAD6B97CA01B9010E940DE525
:102FA0009B01AC01C501B4010E94A2DB0E9434DE8A
:102FB0004B015C012FE632E143E85AE30E94A8E4AA
:102FC00087FD5FC2C501B4010E9435DD0E9406DDA8
:102FD00065967FAF6EAF6597DB01AB2B31F4E1E017
:102FE000F0E06596FFAFEEAF659765962EAD3FAD0D
:102FF0006597B90180E090E00E94ACE44B015C0170
:103000009B01AC01C701B6010E948FDC2F966CAF0B
:103010007DAF8EAF9FAF2F97A50194016B966CADDE
:103020007DAD8EAD9FAD6B970E948FDCAB966CAF84
:103030007DAF8EAF9FAFAB97EB962CAD3DAD4EAD58
:103040005FADEB97AF966CAD7DAD8EAD9FADAF979D
:103050000E94A1DBA50194010E948FDCAF966CAFAA
:103060007DAF8EAF9FAFAF972F962CAD3DAD4EADE0
:103070005FAD2F97CA01B9010E940DE520E030E055
:1030800040E05FE30E940DE59B01AC0160E070E071
:1030900080E89FE30E94A1DB6B966CAF7DAF8EAFA3
:1030A0009FAF6B97E7968CAD9DADAEADBFADE7978B
:1030B00089879A87AB87BC87EB962CAD3DAD4EAD2B
:1030C0005FADEB972D873E874F87588B609131021C
:1030D00070913202072E000C880B990B0E94AEE40F
:1030E00020913B0230913C0240913D0250913E02C2
:1030F0000E940DE52AE037ED43E25CE30E940DE516
:10310000A3966CAF7DAF8EAF9FAFA3970E9439B7E8
:103110009B01AC0128533F4F4F4F5F4FA7962CAFF9
:103120003DAF4EAF5FAFA79724964FAC249725963F
:103130005FAC259726966FAC269727967FAC27978E
:1031400022242394312C99E1D92E65964EAD5FADA2
:1031500065972416350609F450C10E94F8AE0E9406
:1031600039B7DC01CB01A7962CAD3DAD4EAD5FADBF
:10317000A797821B930BA40BB50BB7FD11C00E9440
:1031800039B79B01AC0128533F4F4F4F5F4FA79674
:103190002CAF3DAF4EAF5FAFA79780E00E948CC1D0
:1031A000DA94DD2009F44BC06B962CAD3DAD4EADED
:1031B0005FAD6B972B966CAD7DAD8EAD9FAD2B97B4
:1031C0000E940DE54B015C012F962CAD3DAD4EAD3F
:1031D0005FAD2F97B201C3010E940DE5A5019401D7
:1031E0000E94A2DB7B018C016B962CAD3DAD4EADF8
:1031F0005FAD6B97B201C3010E940DE54B015C010D
:103200002F962CAD3DAD4EAD5FAD2F972B966CAD8F
:103210007DAD8EAD9FAD2B970E940DE59B01AC015E
:10322000C501B4010E94A1DB2B013C01C701D801FB
:103230002B968CAF9DAFAEAFBFAF2B975BC0B101EC
:1032400080E090E00E94ACE42F962CAD3DAD4EADF9
:103250005FAD2F970E940DE54B015C010E948CDC55
:103260006B017C01C501B4010E9429DE4B015C01A8
:10327000A701960127966CAD7DAD8EAD9FAD2797CA
:103280000E940DE52B013C01A501940163966CADF4
:103290007DAD8EAD9FAD63970E940DE59B01AC01A6
:1032A000C301B2010E94A2DB2B013C01A5019401E4
:1032B00027966CAD7DAD8EAD9FAD27970E940DE535
:1032C0004B015C01A701960163966CAD7DAD8EAD9F
:1032D0009FAD63970E940DE59B01AC01C501B40150
:1032E0000E94A1DB2B966CAF7DAF8EAF9FAF2B976B
:1032F00009E1D02E9201A3016F966CAD7DAD8EAD2C
:103300009FAD6F970E94A2DB69837A838B839C8336
:103310002B962CAD3DAD4EAD5FAD2B97E3966CADCE
:103320007DAD8EAD9FADE3970E94A2DB6D837E8362
:103330008F839887AB962CAD3DAD4EAD5FADAB970F
:1033400069857A858B859C850E94A2DB69877A874F
:103350008B879C87AF962CAD3DAD4EAD5FADAF97E3
:103360006D857E858F8598890E94A2DB6D877E871B
:103370008F87988B80916802882321F0CE01019677
:103380000E9462BFC090401289819A81AB81BC814A
:1033900088A399A3AAA3BBA38D819E81AF81B88581
:1033A0008CA39DA3AEA3BFA389859A85AB85BC855D
:1033B00088A799A7AAA7BBA7AE01485D5F4FBE012A
:1033C0006C5D7F4FCE0180960E94197DA396ECAC78
:1033D000FDAC0EAD1FADA3979E01235F3F4FAE0125
:1033E000485D5F4FBE016C5D7F4FCE0180960E94AD
:1033F000956F3FEF231A330AA8CEC09040128091F8
:10340000151290911612A0911712B091181288A35C
:1034100099A3AAA3BBA38091191290911A12A0910B
:103420001B12B0911C128CA39DA3AEA3BFA38091CD
:103430001D1290911E12A0911F12B091201288A708
:1034400099A7AAA7BBA7AE01485D5F4FBE016C5DFF
:103450007F4FCE0180960E94197DA396ECACFDAC07
:103460000EAD1FADA39721E232E1AE01485D5F4F83
:10347000BE016C5D7F4FCE0180960E94956F0E94C9
:103480005E560E94EE5A0C94FF2BEEEEFFE1849103
:103490008F010F5F1F4F882321F00E94175CF801F6
:1034A000F6CFECE2F2E084918F010F5F1F4F88238B
:1034B00011F40C94FF2B0E94175CF801F4CF80E00C
:1034C0000E94715B0C94FF2B0E943B300C94FF2BED
:1034D0006091F30370E08BEE9AE00E94F76D6091CB
:1034E000F40370E087EE9AE00E94F76D6091F503B7
:1034F00070E083EE9AE00E94F76D8AE00E94175C0C
:103500000C94FF2B81E0809397030C94FF2B0E9477
:103510003ECF0C94FF2B8091A9129091AA1286376E
:10352000910511F40C949B220CF0D6C08C349105BB
:1035300009F44FC50CF06EC08831910509F4B1C291
:10354000CCF58231910509F484C684F497FF02C05A
:103550000C94FF2B823091050CF4D0C1419711F0EF
:103560000C94FF2B0E9410C40C94FF2B8531910505
:1035700009F48DC23CF4449711F00C94FF2BE1E563
:10358000F2E042C28631910509F485C2479711F0F5
:103590000C94FF2B40E061E08091A7129091A8125B
:1035A0000E94C3996DE07EE089EA93E00E94EEDE1E
:1035B0000C94FF2B8E31910509F4CEC2C4F48A31EC
:1035C000910509F47FC20CF477C28B31910509F49F
:1035D00087C24C9711F00C94FF2B40E060E0809183
:1035E000A7129091A8120E94C3990C94FF2B8032CD
:1035F000910509F4C8C30CF409C48A32910509F491
:10360000A8C48B34910511F00C94FF2B0E949BB23F
:103610000C94FF2B8A36910509F4D4C5B4F5843592
:10362000910509F416C6E4F48135910509F4FBC54A
:103630004CF48D34910511F00C94FF2B0E94CAA01C
:103640000C94FF2B8235910509F4FFC58335910554
:1036500011F00C94FF2B81E0809396030C94FF2BC8
:103660008C35910509F447C634F48535910509F484
:1036700027C60C94FF2B8836910509F4AEC4893611
:10368000910509F42AC50C94FF2B8F36910509F496
:10369000D6C484F48C36910509F4D5C40CF4B1C5B4
:1036A0008D36910509F45FC58E36910509F4B4C4D1
:1036B0000C94FF2B8137910509F4CDC40CF4C7C4D9
:1036C0008237910509F4A1C68337910511F00C9456
:1036D000FF2BE5E0F4E09FC6833651E0950711F437
:1036E0000C94B22B0CF071C08B3C910511F40C942E
:1036F000DA23ACF58C38910509F4D9C48CF48837F9
:10370000910509F4ECC70CF484C78937910511F0D1
:103710000C94FF2B10921202109262060C94FF2B55
:103720008E3B910509F43AC534F48B39910509F4BF
:10373000F1C40C94FF2B883C910509F4D7C7893C50
:10374000910511F00C94FF2B79E6E72E72E1F72E2C
:103750000FE612E0E4E0DE2ED00E0C94C0238C3D88
:10376000910511F40C94AB25B4F48D3C910511F442
:103770000C94632414F40C94F9238E3C910511F4F9
:103780000C94CE24833D910511F00C94FF2BE9E0BD
:10379000F0E20C941525823E910511F40C94D1258C
:1037A0003CF48D3D910511F40C94B8250C94FF2B3D
:1037B0008D32B1E09B0711F40C94FB258F329140C0
:1037C00011F40C9499260C94FF2B873FF1E09F078E
:1037D00011F40C94C0290CF045C0843A31E09307F1
:1037E00011F40C94B729FCF4813951E0950711F4D8
:1037F0000C94AF294CF48039914011F00C94FF2BBC
:103800000E94C7900C94FF2B8239E1E09E0711F4CF
:103810000C94B3298A39914011F00C94FF2B0E942B
:1038200013BB0C94FF2B843F21E0920711F40C94FE
:10383000BA294CF48C3A914011F00C94FF2B0E9461
:10384000328F0C94FF2B853F51E0950711F40C94B7
:10385000BD29863F914011F00C94FF2B0E944982B4
:103860000C94FF2B873EB3E09B0711F40C94CA2BFA
:1038700034F58235F3E09F0711F40C94CE293CF423
:103880008835924011F40C94212A0C94FF2B833537
:1038900043E0940711F40C94D129803A934011F03D
:1038A0000C94FF2B8091A7129091A81221E02093F5
:1038B000090E40E060E00E94C3990C94FF2B8E3407
:1038C000A4E09A0711F40C94DA2B4CF48D34944054
:1038D00011F00C94FF2B0E94F28B0C94FF2B8F3471
:1038E000F4E09F0711F40C94DD2B803B944011F021
:1038F0000C94FF2B0E943A880C94FF2B0091A71286
:103900001091A81280E50E944F5A882361F00E940E
:10391000AD596B017C01BB24B394672B682B692BD9
:1039200031F4B12C04C0B12CC12CD12C760183E52B
:103930000E944F5A882399F00E94ED5920E030E010
:103940004AE754E40E940DE50E9406DD6B017C010C
:10395000B1100CC0672B682B692B41F43BC0B11030
:1039600005C00115110511F00C94062C83E090E0C0
:10397000909306128093051281E08093B7030E9412
:10398000C7900E94EE5AC114D104E104F104A1F1E0
:1039900080910D1290910E12A0910F12B091101201
:1039A000C80ED91EEA1EFB1E0E9439B7DC01CB01EE
:1039B0008C199D09AE09BF09B7FD04C01092B70369
:1039C0000C94FF2B8091B7038823C1F380E00E9401
:1039D0008CC1EACF0115110511F00C94062C83E07F
:1039E00090E0909306128093051281E08093B703D4
:1039F0000E94C7900E94EE5A8091B7038823F1F28B
:103A000080E00E948CC1F8CF84918F010F5F1F4F1F
:103A1000882321F00E94175CF801F6CF10929010D5
:103A200010928F1040E050E0BA018AE59EE00E94BB
:103A30002F6B8BE1EAE5FEE0DE01159601900D9219
:103A40008A95E1F78091580E9091590E9C838B8353
:103A50008FEB92E09A83898340E050E0BE016F5F74
:103A60007F4F88E793E00E94F6A1CE0101960E9465
:103A7000CCC0E2E4F2E084918F010F5F1F4F8823F6
:103A800011F40C94FF2B0E94175CF801F4CF0E94F4
:103A9000E29B0C94FF2B10920A0E10920B0E0C94CA
:103AA000FF2B80910B0E882319F081E080930A0E82
:103AB0000E949BB20C94FF2B10920A0E0E9418B326
:103AC0000C94FF2B80910B0E882311F40C94FF2B88
:103AD00083E50E944F5A81110C94262C0C94FF2BE5
:103AE00080910B0E882351F1E2E6F2E084918F0180
:103AF0000F5F1F4F882321F00E94175CF801F6CF5B
:103B00006091861070918710809188109091891033
:103B10004AE00E94D15C8FE20E94175C60918210A3
:103B20007091831080918410909185104AE00E94DA
:103B3000D15C8AE00E94175C0C94FF2BE4E7F2E072
:103B400084918F010F5F1F4F882311F40C94FF2B7A
:103B50000E94175CF801F4CF80910B0E882311F4BA
:103B60000C94FF2B8BE39EE00E94EE6A8BE39EE0B9
:103B70000E944BA41092090E1092080EE090A7121A
:103B8000F090A81280910B0E882311F40C94FF2B57
:103B90000E9472A01D8218861C821B828FEB92E00D
:103BA0009A83898386E59EE09093760E8093750EC6
:103BB000D7018C918F3209F067C06FE270E0C701C6
:103BC0000E94DADE8C010F5F1F4FFE0131964F011C
:103BD0000115110509F45EC06FE270E0C8010E9492
:103BE000DADE6C01009709F456C00817190708F0CF
:103BF00052C05C01A01AB10AA501B801CE0180969D
:103C00000E9403DFE0E2F0E0EC0FFD1FEA0DFB1D78
:103C100010828E01005E1F4FD8018D918D01882387
:103C200019F00E94175CF8CF8AE00E94175C60913F
:103C3000750E7091760E6115710511F06C5F7F4FF6
:103C400021E0AE01405E5F4FCE0105960E9411A8B3
:103C5000811112C0BE01605E7F4F8BEA92E00E942C
:103C6000106E8EE20E94175C8AE00E94175CC4010D
:103C70000E94CCC00C94FF2B9092760E8092750E11
:103C800086010F5F1F4FA4CF87E79EE09093760ECB
:103C90008093750E87016091750E7091760E611597
:103CA000710511F06C5F7F4F18A21BA222E0A801E2
:103CB000CE0180960E9411A8811102C0F12C1EC075
:103CC000CE0180960E94E09F8823C1F36CA57DA55C
:103CD0008EA59FA541E00E94BB67882379F3E8A9E0
:103CE000B0E2EB9FF0011124ED55F44F309731F322
:103CF00085EE80831BA20E947B67F82ECE01809602
:103D00000E94CA5AFF2009F1E5E8F2E084917F01A0
:103D10002FEFE21AF20A882321F00E94175CF701C4
:103D2000F5CFD8018D918D01882319F00E94175C81
:103D3000F8CF8AE00E94175C1092861010928710CC
:103D4000109288101092891018C0E3E9F2E0849173
:103D50007F01BFEFEB1AFB0A882321F00E94175C5A
:103D6000F701F5CFF80181918F01882319F00E94A6
:103D7000175CF8CF8EE20E94175CCE0101960E947C
:103D8000CCC00C94FF2B80910A0E81110E94C79029
:103D9000E090A712F090A81280E50E94205A182FF8
:103DA000882319F00E94DE59182F80910B0E88236A
:103DB00011F40C94FF2B412F61E0C7010E94C399BD
:103DC00083E50E944F5A882381F00E94BD59AB01C0
:103DD000BC014093861050938710609388107093B5
:103DE00089108BE39EE00E942F6B6DE07EE089EAF4
:103DF00093E00E94EEDE80910B0E882319F081E0A3
:103E000080930A0E11110C94FF2B52CE0E9494A0A5
:103E10001CE3C12ED12CE12CF12CA70196010E94AC
:103E200083E8762E672ECA01B901A70196010E9488
:103E300083E86B017C01CA01B90128E130E040E070
:103E400050E00E9483E84B015C01C9016DE671E01E
:103E50000E9455DB8E010F5F1F4F6115710599F0B0
:103E60006F927F92DF92CF929F928F929F938F93C8
:103E70007F936F9387EE92E09F938F931F930F939F
:103E80000E9479E426C0009789F06F927F92DF92BA
:103E9000CF929F928F929F938F9387ED92E09F9303
:103EA0008F931F930F930E9479E413C081149104A0
:103EB000A104B104B1F06F927F92DF92CF929F92F2
:103EC0008F928BEC92E09F938F931F930F930E949E
:103ED00079E40FB6F894DEBF0FBECDBFE9E0F0E2A3
:103EE00023C0C114D104E104F10469F06F927F9200
:103EF000DF92CF9283EC92E09F938F931F930F9367
:103F00000E9479E4E6CF6F927F928FEB92E09F93CD
:103F10008F931F930F930E9479E40F900F900F904F
:103F20000F900F900F90DACF84917F01BFEFEB1AC3
:103F3000FB0A882321F00E94175CF701F5CFB80136
:103F40008BEF92E00E94106E8AE00E94175C0C9446
:103F5000FF2B83E50E944F5A882311F40C94FF2B0A
:103F60000E94CD59E82E80E50E944F5A882341F0E7
:103F70000E94BD598B0177FF02C00C94FF2B02C039
:103F80000DE010E0902FE7EBF5E088E28E0F249132
:103F9000921729F031968E13FACF0C94372CEEEE4F
:103FA000FFE184918F010F5F1F4F882321F00E9452
:103FB000175CF801F6CFE8E0F3E084918F010F5F22
:103FC0001F4F882311F40C94FF2B0E94175CF801FB
:103FD000F4CF0E9418B30C94FF2B88E690E00E9467
:103FE000375D81110C94FF2B8091470683FF02C03F
:103FF0000C94FF2B83E50E944F5A882349F00E94BE
:10400000ED590E9400DDCB010E94BBC00E94ED591A
:104010000E94386E0C94FF2B8EE40E944F5A882326
:1040200011F40C94FF2B0E94BD5960930112709300
:10403000021280930312909304120C94FF2B0E949F
:10404000DCBB0C94FF2B109217020C94FF2B87E122
:1040500093E00E945CC183E50E944F5A882369F077
:104060000E94CD598D3320F4809357020C94FF2B7E
:104070008CE3809357020C94FF2BE9E0F0E28491EB
:104080008F010F5F1F4F882321F00E94175CF801FA
:10409000F6CF4091570250E060E070E080E293E09C
:1040A0000E94F1978AE00E94175C0C94FF2B80918C
:1040B000470683FF02C00C94FF2B83E50E944F5AF2
:1040C000882311F40C94FF2B0E94ED590E9400DD0F
:1040D000CB010E94D05A0C94FF2B89E690E00E94FD
:1040E000375D811111C0E7E2F3E084918F010F5F2A
:1040F0001F4F882321F00E94175CF801F6CF0E9421
:104100004EBC8AE00E94175C1092061210920512B3
:104110000C94213083E50E944F5A882311F40C94AB
:10412000FF2B0E94CD598D3308F08CE380930B1246
:104130000E9439B76B017C0120910B1230E0A8EE90
:10414000B3E00E94AFE8DC01CB018C0D9D1DAE1DDC
:10415000BF1D8093071290930812A0930912B09389
:104160000A120C94FF2B8DE690E00E94375D8111BE
:104170000C94FF2B8091470683FF02C00C94FF2B09
:1041800083E50E944F5A81110C944D2C82E50E94C8
:104190004F5A81110C944D2C0C94FF2B80914706A3
:1041A00083FF02C00C94FF2B83E50E944F5A8111BC
:1041B0000C945F2C82E50E944F5A81110C945F2C65
:1041C0000C94FF2B83E50E944F5A882339F00E94FC
:1041D000BD598B016F3F710519F010F00FEF10E022
:1041E00080E50E944F5A811106C010933804009355
:1041F00037040C94FF2B0E94CD5981110C94FF2B96
:10420000F4CF80E50E944F5A811106C01092380405
:10421000109237040C94FF2B0E94BD59672B11F0AC
:104220000C94FF2BF3CF0E94FBAB0E94C7900E941F
:104230004CC1109238041092370468EE73E080E0AD
:1042400090E00E9474B80C94FF2B109296030C948B
:10425000FF2B83E50E944F5A8823A1F00E94ED595D
:1042600020E030E04AE754E40E940DE50E9406DDBC
:10427000609358027093590280935A0290935B02A4
:104280000C94FF2B88E50E94205A81110C946F2C0E
:1042900089E50E94205A81110C946F2C8AE50E94B6
:1042A000205A81110C946F2C85E40E94205A8111B0
:1042B0000C946F2C0E94C7900E944CC10C94FF2B51
:1042C00083E50E94205A882311F40C94FF2B0E944E
:1042D000ED5920E030E04AE754E40E940DE50E94E9
:1042E00006DD609311127093121280931312909353
:1042F00014120C94FF2BAFE6CA2EA2E0DA2EB6E51C
:10430000EB2EB1E1FB2E10E0F60181916F010E94CE
:10431000205A882309F46EC0133009F063C00E944C
:10432000ED594B015C0120E030E040EA51E40E948D
:10433000A8E487FF4EC0A5019401609162117091BD
:10434000631180916411909165110E948FDC2B01A3
:104350003C019B01AC0160914D1270914E12809115
:104360004F12909150120E940DE560934D12709380
:104370004E1280934F1290935012A30192016091BC
:1043800085127091861280918712909188120E94F6
:104390000DE5609385127093861280938712909337
:1043A000881260915406709155068091560690913E
:1043B00057060E94ACE4A30192010E940DE50E9401
:1043C00006DD6093540670935506809356069093CD
:1043D00057068092621190926311A0926411B0927C
:1043E000651108C00E94ED59D7016D937D938D939F
:1043F0009C9313971F5FB4E0EB0EF11C143009F08F
:1044000083CF0E94DF7D0C94FF2B0E94C7900E94F7
:104410001DBB0C94FF2B84918F010F5F1F4F8823CE
:1044200021F00E94175CF801F6CFE7EFF3E08491EA
:104430008F010F5F1F4F882321F00E94175CF80146
:10444000F6CFE0EEF3E084918F010F5F1F4F8823DA
:1044500021F00E94175CF801F6CFE0EDF3E08491C3
:104460008F010F5F1F4F882321F00E94175CF80116
:10447000F6CFEFEBF3E084918F010F5F1F4F88239E
:1044800021F00E94175CF801F6CFEEEAF3E0849188
:104490008F010F5F1F4F882321F00E94175CF801E6
:1044A000F6CFEFE9F3E084918F010F5F1F4F882370
:1044B00021F00E94175CF801F6CFEAE8F3E084915E
:1044C0008F010F5F1F4F882321F00E94175CF801B6
:1044D000F6CFE4E7F3E084918F010F5F1F4F88234D
:1044E00021F00E94175CF801F6CFEFE5F3E084912C
:1044F0008F010F5F1F4F882321F00E94175CF80186
:10450000F6CFE2E4F3E084918F010F5F1F4F882321
:1045100021F00E94175CF801F6CFEAE2F3E0849103
:104520008F010F5F1F4F882311F40C94FF2B0E9403
:10453000175CF801F4CF85E40E94205A882381F0AB
:104540000E94DE59882361F0E9E0F0E284918F0156
:104550000F5F1F4F882321F00E94175CF801F6CFF0
:1045600081E40E94205A882381F00E94DE5988232A
:1045700061F0E7ECF4E084918F010F5F1F4F882317
:1045800021F00E94175CF801F6CF0091A71210915C
:10459000A812F80181918F018823B1F10E94175C64
:1045A000F8CF8AE50E94205A882309F420C70E9488
:1045B000ED596B017C0120E030E040EA51EC0E94B3
:1045C000EBDD87FD07C720E030E040EA51E4C7019A
:1045D000B6010E94A8E418160CF4FCC6C09226117D
:1045E000D0922711E0922811F092291180E00E94C8
:1045F000948E6091261170912711809128119091CD
:10460000291142E00E9400618AE00E94175C0C942C
:10461000FF2BE3EEF4E084918F010F5F1F4F88239F
:1046200021F00E94175CF801F6CFEBEDF4E08491E5
:104630008F010F5F1F4F882321F00E94175CF80144
:10464000F6CF789B03C00BED12E002C000EE12E043
:10465000D8018D918D01882319F00E94175CF8CF45
:104660008AE00E94175CE3EDF4E084918F010F5F14
:104670001F4F882321F00E94175CF801F6CF029BA0
:1046800003C00BED12E002C000EE12E0F8018191D0
:104690008F01882319F00E94175CF8CF8AE00E94EE
:1046A000175CEBECF4E084918F010F5F1F4F8823C0
:1046B00021F00E94175CF801F6CF8091000183FF82
:1046C00003C00BED12E002C000EE12E0D8018D91A4
:1046D0008D01882309F498CF0E94175CF7CF81E001
:1046E00080931202809362060C94FF2B88EC90E07A
:1046F0000E94375D81110C94FF2B84E40E94205AA4
:104700008823D1F10E94ED5911E020E030E0A901A9
:104710000E94A8E4811101C010E01093EC11112354
:1047200059F10091920310E00E94ED59000F111F02
:10473000000F111FF801ED5AFD4F608371838283D2
:10474000938320E030E0A9016091530270915402FC
:1047500080915502909156020E94A8E481110CC0EC
:1047600080E090E0A0E4B0E4809353029093540280
:10477000A0935502B09356020E941CC40C94FF2BC8
:10478000F80181918F010E94205A882351F00E94E4
:10479000ED590E9406DDD7016D937D938D939C9317
:1047A0001397B4E0EB0EF11CD012EACF0E94686EB2
:1047B0000C94FF2B59E7E52E52E1F52E0FE612E09F
:1047C00064E0D62ED00EF80181918F010E94205A0C
:1047D000882341F00E94ED59D7016D937D938D930D
:1047E0009C931397B4E0EB0EF11CD012ECCF0C9419
:1047F000FF2B83E50E94205A8823D9F00E94ED59AF
:10480000AB01BC014093651250936612609367122E
:104810007093681240935D1250935E1260935F1222
:104820007093601287E595E00E94DA6D8AE00E943D
:10483000175C80E50E94205A882399F00E94ED5968
:10484000AB01BC01409365125093661260936712EE
:10485000709368128AE395E00E94DA6D8AE00E9404
:10486000175C82E50E94205A882399F00E94ED5936
:10487000AB01BC01409361125093621260936312CA
:10488000709364128BE195E00E94DA6D8AE00E94D9
:10489000175C84E50E94205A882309F4B0C70E945F
:1048A000ED59AB01BC0140935D1250935E126093D1
:1048B0005F12709360128DEF94E00E94DA6D8AE0CF
:1048C0000E94175C9CC783E50E94205A882351F000
:1048D0000E94ED596093591270935A1280935B12A3
:1048E00090935C1284E50E94205A882351F00E9424
:1048F000ED5960935112709352128093531290931A
:10490000541282E40E94205A882351F00E94AD592B
:1049100060935512709356128093571290935812C9
:1049200088E50E94205A882351F00E94ED59609337
:10493000411270934212809343129093441289E57E
:104940000E94205A882351F00E94ED59609345122D
:104950007093461280934712909348128AE50E9402
:10496000205A882351F00E94ED59609349127093A8
:104970004A1280934B1290934C1285E40E94205A65
:10498000882309F43CC70E94ED5960934D1270933F
:104990004E1280934F129093501231C72FE6A22EE1
:1049A00022E0B22E36E4C32E31E1D32E45E0E42ED0
:1049B00044E0F42E00E010E0F50181915F010E94D7
:1049C000205A882311F10E94ED592B013C01D70197
:1049D0002D913D914D915C910E94A1DB9B01AC0119
:1049E000F60160817181828193810E94A2DBD601F0
:1049F0006D937D938D939C931397F7014082518221
:104A000062827382C8010E94B4580F5F1F4FF4E0A6
:104A1000CF0ED11C24E0E20EF11C0330110561F62B
:104A20000E9466590E941DBBEAC684918F010F5FE8
:104A30001F4F882321F00E94175CF801F6CF83E511
:104A40000E94205A882321F00E94DE598093680238
:104A5000E7EAF5E084918F010F5F1F4F882321F073
:104A60000E94175CF801F6CF80916802811103C0A3
:104A7000E3EAF5E002C0EFE9F5E084918F010F5F12
:104A80001F4F882321F00E94175CF801F6CFE7E959
:104A9000F5E084918F010F5F1F4F882321F00E9462
:104AA000175CF801F6CF40912D1250912E126091B3
:104AB0002F127091301285E995E00E94DA6D4091D5
:104AC000311250913212609133127091341282E996
:104AD00095E00E94DA6D4091351250913612609146
:104AE0003712709138128FE895E00E94DA6DE7E88E
:104AF000F5E084918F010F5F1F4F882321F00E9402
:104B0000175CF801F6CF40915C0250915D02609114
:104B10005E0270915F0285E895E00E94DA6D409137
:104B2000600250916102609162027091630282E8BA
:104B300095E00E94DA6D40916402509165026091A7
:104B40006602709167028FE795E00E94DA6D8AE055
:104B50000E94175C54C683E50E944F5A882309F4CB
:104B60004EC60E94BD59709332026093310247C60F
:104B70008DED90E00E94375D811141C683E50E9472
:104B80004F5A882309F43BC60091920310E00E941B
:104B9000BD59000F111FF801EF5FFD4F7183608356
:104BA0002EC680E50E94205A882309F428C60E9458
:104BB000BD596B017C0183E50E944F5A882321F087
:104BC0000E94BD598B0102C00FEF1FEFC801019673
:104BD000039708F014C6D7FC12C69C2DE7EBF5E04E
:104BE00088E28E0F2491921709F409C631968E132C
:104BF000F9CF0C94F82F85E40E944F5A811110C010
:104C000080E50E94205A882391F00E94ED5960931C
:104C10004F0270935002809351029093520207C04A
:104C20000E94CD59882361F3EEEEFFE171C089E463
:104C30000E94205A882381F00E94ED592CEA35EC1D
:104C400047E25EE30E940DE560934B0270934C02D5
:104C500080934D0290934E0284E40E94205A882350
:104C600081F00E94ED592CEA35EC47E25EE30E94A8
:104C70008FDC6093470270934802809349029093BF
:104C80004A02E9E0F0E284918F010F5F1F4F882311
:104C900021F00E94175CF801F6CF40914F0250912D
:104CA0005002609151027091520287EE95E00E948D
:104CB000DA6D2CEA35EC47E25EE360914B027091CD
:104CC0004C0280914D0290914E020E948FDCAB010C
:104CD000BC0183EE95E00E94BD6D2CEA35EC47E205
:104CE0005EE3609147027091480280914902909181
:104CF0004A020E940DE5AB01BC018FED95E00E94D8
:104D0000BD6D8AE00E94175C7AC50E94175CF801AD
:104D100084918F010F5F1F4F8111F7CF0AEE12E0D0
:104D2000D8018D918D01882309F46ECC0E94175C07
:104D3000F7CF85E40E944F5A882321F00E94BD5985
:104D40008B0102C000E010E083E40E944F5A8823E8
:104D500049F00E94BD59C257DF4F79836883CE580E
:104D6000D04008C0E5E0F0E0C257DF4FF983E883A8
:104D7000CE58D04085E50E94205ACC57DF4F88831B
:104D8000C458D040882339F00E94DE59CC57DF4FF9
:104D90008883C458D04017FD07C0C12CD12C86E1B0
:104DA000E82E83E4F82E06C0C12CD12CBCE8EB2EF3
:104DB000B2E4FB2E83E50E944F5A882321F00E9423
:104DC000ED596B017C010115110511F4109292034C
:104DD00010920612109205120E9439B74B015C0125
:104DE000012B19F40BEF12E00EC00EE013E0D80116
:104DF0008D918D01882319F00E94175CF8CF8AE00D
:104E00000E94175CFCC4F80181918F01882319F07E
:104E10000E94175CF8CFC701B6010E9400DD072E83
:104E2000000C880B990B0E94AEE42C966FAF2C9768
:104E300064967FAF649768968FAF68976C969FAFC4
:104E40006C978AE00E94175C0E94FBAB8FE780930F
:104E5000CD1081E080931702CA57DF4F8882998274
:104E6000AA82BB82C658D040C057DF4F8882998241
:104E7000AA82BB82C059D040E0961FAEE097F0E412
:104E8000A096FFAFA0972CE1A4962FAFA49736E48D
:104E9000E4963FAFE497E8961FAEE897A8961FAE5A
:104EA000A897AC961FAEAC97EC961FAEEC97C05887
:104EB000DF4F188219821A821B82C058D040C45812
:104EC000DF4F188219821A821B82CC57D040C12C26
:104ED000D12C7601AFE74A2E512C612C712C8FE733
:104EE00090E0A0E0B0E02B968CAF9DAFAEAFBFAF2F
:104EF0002B97C657DF4F188219821A821B82CA5815
:104F0000D04091E0CB57DF4F9883C558D040619691
:104F10001FAE1EAE6197212C312C00E010E0809175
:104F20001702882309F40BC20E9439B727966CAF89
:104F30007DAF8EAF9FAF27978091CB10882309F468
:104F4000D5C00E94CBAC20903A1230903B12009119
:104F50003C1210913D129101A801E8966FADE897BF
:104F6000A8967FADA897AC968FADAC97EC969FAD09
:104F7000EC970E94A8E487FF0CC0E8962FAEE89754
:104F8000A8963FAEA897AC960FAFAC97EC961FAF24
:104F9000EC979101A801E0966FADE097A0967FADE8
:104FA000A097A4968FADA497E4969FADE4970E9436
:104FB000EBDD181664F4E0962FAEE097A0963FAEB6
:104FC000A097A4960FAFA497E4961FAFE497CB5792
:104FD000DF4FA881C558D0402C962FAD2C976496F2
:104FE0003FAD649768964FAD68976C965FAD6C97D0
:104FF000B101C801AA2309F45BC00E94EBDD1816B9
:105000000CF074C027964CAD5DAD6EAD7FAD2797AB
:10501000481959096A097B09DB01CA01885893417B
:10502000A109B109B7FD62C02B968CAD9DADAEADA7
:10503000BFAD2B9784199509A609B709B595A79512
:10504000979587958093CD10C657DF4F4883598336
:105050006A837B83CA58D0402C96BFAD2C97E896C4
:10506000BFAFE8976496EFAD6497A896EFAFA897A7
:105070006896FFAD6897AC96FFAFAC976C962FAD76
:105080006C97EC962FAFEC9727968CAD9DADAEAD9F
:10509000BFAD2797CA57DF4F88839983AA83BB8305
:1050A000C658D040CB57DF4F1882C558D0401EC0DD
:1050B0000E94A8E487FF1AC027968CAD9DADAEADC7
:1050C000BFAD2797CA57DF4F288139814A815B815D
:1050D000C658D040821B930BA40BB50BAC01BD018D
:1050E000485853416109710977FF23C420E030E03B
:1050F00040EF51E42C966FAD2C9764967FAD64978A
:1051000068968FAD68976C969FAD6C970E94A2DBF6
:105110009B01AC01B101C8010E94EBDD1816E4F45B
:10512000ECEEF6E084918F010F5F1F4F882321F092
:105130000E94175CF801F6CF8091F6039091F70377
:1051400088609093F7038093F60340E060E082EC80
:1051500096E00E9444B953C380E398EFAFEFBFEFEE
:10516000C057DF4F288139814A815B81C059D040C7
:10517000821B930BA40BB50B27962CAD3DAD4EAD0A
:105180005FAD2797820F931FA41FB51FB7FD13C0F4
:105190000E944EBC8AE00E94175C27968CAD9DADA4
:1051A000AEADBFAD2797C057DF4F88839983AA83E1
:1051B000BB83C059D04027968CAD9DADAEADBFAD81
:1051C0002797880F991FAA1FBB1FCA57DF4F288137
:1051D00039814A815B81C658D040821B930BA40B56
:1051E000B50B88199909AA09BB0981389F44A241C6
:1051F000B105E0F0E4EAF6E084918F010F5F1F4F04
:10520000882321F00E94175CF801F6CF8091F60305
:105210009091F70388609093F7038093F60340E042
:1052200060E087E896E00E9444B9E9C261964EAD1D
:105230005FAD6197C257DF4F88819981CE58D040CA
:10524000841795070CF078C0EAE2F6E084918F01AC
:105250000F5F1F4F882321F00E94175CF801F6CFE3
:10526000B701A60185E196E00E94DA6D8AE00E940E
:10527000175CC458DF4F488159816A817B81CC57C4
:10528000D04080E096E00E94DA6D8AE00E94175CD0
:10529000C058DF4F488159816A817B81C058D04016
:1052A0008BEE95E00E94DA6D8AE00E94175CCC5785
:1052B000DF4F9881C458D0409923A1F1C0924F028A
:1052C000D0925002E0925102F09252022CEA35EC58
:1052D00047E25EE3C458DF4F688179818A819B8110
:1052E000CC57D0400E940DE560934B0270934C0266
:1052F00080934D0290934E022CEA35EC47E25EE338
:10530000C058DF4F688179818A819B81C058D04025
:105310000E948FDC60934702709348028093490299
:1053200090934A028091F6039091F70388609093DE
:10533000F7038093F60363C20E947A48F0CD809110
:105340001702811102C00E94FBAB8091F60390917D
:10535000F70388609093F7038093F60350C281E0CF
:105360000E946B584CC280E00E946B5848C20E9459
:10537000B9BA45C20E94336442C20E9475833FC2DB
:1053800083E50E94205A882319F00E94DE5901C04B
:1053900081E091E089270E94517E31C20E94F28E05
:1053A0002EC2E9E0F0E284918F010F5F1F4F882346
:1053B00021F00E94175CF801F6CFE2E9F7E0849152
:1053C0008F010F5F1F4F882309F4EBC80E94175C01
:1053D000F801F5CFEBE7F7E084918F010F5F1F4FE6
:1053E000882309F411C90E94175CF801F5CF409198
:1053F000261150912711609128117091291188E789
:1054000097E00E94DA6D80914206882369F0E0E619
:10541000F7E084918F010F5F1F4F882309F4F4C8D0
:105420000E94175CF801F5CFECE6F7E084918F015C
:105430000F5F1F4F882309F4E7C80E94175CF8012B
:10544000F5CF85E40E94205A882329F00E94ED5967
:105450004B015C0105C0812C912CA12C40ECB42E99
:105460008AE50E944F5A882329F00E94ED592B01AA
:105470003C0106C0412C512C30E2632E31E4732EE6
:1054800088E50E944F5A882319F00E94ED5904C004
:1054900060E070E080E490E423966CAF7DAF8EAF67
:1054A0009FAF239789E50E944F5A882319F00E94E5
:1054B000ED5904C060E070E080E490E46BAF7CAF35
:1054C0008DAF9EAF85E50E94205A882329F00E9467
:1054D000ED596B017C0106C0C12CD12C28ECE22EC9
:1054E00022ECF22E8CE40E94205A882349F00E947C
:1054F000ED5927966CAF7DAF8EAF9FAF279706C053
:1055000027961CAE1DAE1EAE1FAE279782E40E94EA
:105510004F5A81110E94BD590091FA0D1091FB0D57
:1055200080910C12811117C18091470683FD13C031
:1055300020E030E0A901C701B6010E94A8E4811172
:1055400008C020E030E0A901C501B4010E94A8E430
:1055500081110E94F0BE81E080930C1290910A0E9E
:10556000992321F010920A0E809398030E9418B399
:1055700040E061E083E798E00E9444B90E94C79050
:1055800080E1E6E4F1E1A9E9B3E001900D928A95AA
:10559000E1F720E030E0A901C501B4010E94A8E4D0
:1055A0008823F1F00E945456A501940160912112C4
:1055B0007091221280912312909124120E94A2DBFA
:1055C00060932112709322128093231290932412DD
:1055D00060E070E080E792E40E9468560E94C79005
:1055E00020E030E0A901C301B2010E94EBDD1816F2
:1055F000FCF480E090E0A0EAB0E489839A83AB8376
:10560000BC83A301920160914E1170914F11809162
:105610005011909151110E94A2DB68A379A38AA333
:105620009BA3BE016F5F7F4FCE0180960E94FC5707
:1056300080E090E0A8ECB2E489839A83AB83BC83DA
:105640009E012F5F3F4F4EE451E1BE01655C7F4FED
:10565000CE01CF960E941A5720E030E0A901C70181
:10566000B6010E94A8E4882339F140E061E085E4B6
:1056700098E00E9444B980E00E948CC10E94545678
:10568000A70196016091211270912212809123123C
:10569000909124120E94A2DB609321127093221237
:1056A000809323129093241260E070E080E291E4F2
:1056B0000E9468560E94C79040E060E082EE97E04A
:1056C0000E9444B9E8ECF7E084917F01AFEFEA1A59
:1056D000FA0A882321F00E94175CF701F5CF80E0D9
:1056E0000E948CC1EEEAF7E084917F01BFEFEB1AD4
:1056F000FB0A882321F00E94175CF701F5CF0E9476
:105700004AC164E670E080E090E00E9474B80E94B4
:1057100039B7DC01CB0188539045AF4FBF4F809321
:10572000C7109093C810A093C910B093CA101092DC
:10573000AF0DECE9F7E084917F012FEFE21AF20A56
:10574000882309F4C9C20E94175CF701F4CF809145
:105750000C1281113CC30130110509F050C00E94A8
:105760009BB24DC0EEEEFFE184918F010F5F1F4FA2
:10577000882321F00E94175CF801F6CFE1ECFAE0F3
:1057800084918F010F5F1F4F8823C9F10E94175C1E
:10579000F801F6CF81E08093030283E50E94205A4E
:1057A000811103C00E94C8C42AC00E94DE59811121
:1057B00026C0F8CF0E94778822C00E94978B1FC016
:1057C0008091A9120E94A88B1AC0E9E0F0E28491AE
:1057D0008F010F5F1F4F882321F00E94175CF80193
:1057E000F6CF6091AC127091AD1280ED9AE00E94FC
:1057F000106E82E20E94175C8AE00E94175C109291
:105800000612109205120E94A9C41BC4D8018C91E3
:10581000882311F40C94B61CE9E0F0E284915F0156
:10582000BFEFAB1ABB0A882321F00E94175CF50179
:10583000F5CFF80181918F01882319F00E94175C40
:10584000F8CF8AE00E94175C0C94B61C0E94BD59E8
:10585000AB01BC0140938610509387106093881071
:10586000709389108BE39EE00E942F6BC8CF61E09C
:10587000802F0E94FEB56E2D802F0E94CFB5F12C97
:10588000B701802F0E943AB60530110509F0B7CF55
:10589000F0923804E0923704B2CF0E94ED590E9492
:1058A00000DDCB010E94BBC00E94386E0E94E7BDA4
:1058B000809117021092910310929003A0CF0E9442
:1058C000ED590E9400DDCB010E94D05A0E94DABC43
:1058D00080911702109291031092900390CF0E9432
:1058E000C79088E50E94205A882319F08E9A10925A
:1058F000F30389E50E94205A882319F0749A1092C4
:10590000F4038AE50E94205A882351F09FB7F89447
:10591000809108018061809308019FBF1092F50378
:1059200085E40E94205A882309F469CF0E944AC165
:1059300066CF61964EAD5FAD6197141615060CF0FB
:105940008DC1C657DF4F88809980AA80BB80CA5816
:10595000D040880E991EAA1EBB1EC657DF4F288155
:1059600039814A815B81CA58D040281B390B4A0BC8
:105970005B0BCA01B901A30192010E9474E8A50161
:1059800094010E947CDB2B964CAC5DAC6EAC7FAC82
:105990002B97420E531E641E751E34E143165104AC
:1059A000610471041CF14CEE44165104610471044D
:1059B0003CF450E8451651046104710434F426C0E7
:1059C000EBEE4E2E512C612C712C2B964CAE5DAE15
:1059D0006EAE7FAE2B978EEF90E0A0E0B0E0841922
:1059E0009509A609B7092C013D0116C024E130E054
:1059F00040E050E02B962CAF3DAF4EAF5FAF2B9702
:105A000074E1472E512C612C712C06C02B964CAEA4
:105A10005DAE6EAE7FAE2B97E8E5F7E084919F0117
:105A20002F5F3F4F8823C1F0CC56DF4F2883C459E6
:105A3000D040CB56DF4F3883C559D0400E94175C09
:105A4000CC56DF4F2881C459D040CB56DF4F388128
:105A5000C559D040F901E2CF2B966CAD7DAD8EAD2E
:105A60009FAD2B970E94735DE3E5F7E084919F0162
:105A70002F5F3F4F8823C1F0CC56DF4F2883C45996
:105A8000D040CB56DF4F3883C559D0400E94175CB9
:105A9000CC56DF4F2881C459D040CB56DF4F3881D8
:105AA000C559D040F901E2CFC301B2010E94735D34
:105AB000E0964FADE097A0965FADA097A4966FAD2E
:105AC000A497E4967FADE4978CE497E00E94DA6DAA
:105AD000E8964FADE897A8965FADA897AC966FADE6
